:020000040800F2
:100000000020002045170008C5160008C716000884
:1000100000000000000000000000000000000000E0
:10002000000000000000000000000000C9160008E9
:100030000000000000000000CB160008CD160008EC
:1000400095170008951700089517000895170008E0
:1000500095170008951700089517000895170008D0
:1000600095170008951700089517000895170008C0
:1000700095170008951700089517000895170008B0
:100080009517000895170008000000009517000854
:100090009517000895170008951700089517000890
:1000A000951700089517000895170008D516000841
:1000B00095170008000000009517000800000000D8
:1000C00010B5064C2378002B07D1054B002B02D02E
:1000D000044800E000BF0123237010BD040000208D
:1000E00000000000F0170008044B10B5002B03D0EF
:1000F0000349044800E000BF10BDC04600000000F6
:1001000008000020F0170008002243088B4274D337
:1001100003098B425FD3030A8B4244D3030B8B4208
:1001200028D3030C8B420DD3FF22090212BA030C11
:100130008B4202D31212090265D0030B8B4219D3F2
:1001400000E0090AC30B8B4201D3CB03C01A524112
:10015000830B8B4201D38B03C01A5241430B8B425A
:1001600001D34B03C01A5241030B8B4201D30B0343
:10017000C01A5241C30A8B4201D3CB02C01A52416A
:10018000830A8B4201D38B02C01A5241430A8B422D
:1001900001D34B02C01A5241030A8B4201D30B0216
:1001A000C01A5241CDD2C3098B4201D3CB01C01A30
:1001B000524183098B4201D38B01C01A524143093A
:1001C0008B4201D34B01C01A524103098B4201D328
:1001D0000B01C01A5241C3088B4201D3CB00C01A95
:1001E000524183088B4201D38B00C01A524143080D
:1001F0008B4201D34B00C01A5241411A00D2014632
:10020000524110467047FFE701B5002000F006F8A4
:1002100002BDC0460029F7D076E770477047C04658
:100220000023C25C0133002AFBD1581E704710B571
:10023000040000F081FCFA218900FFF765FF00F05F
:1002400061F8012000222100404200F021F8002046
:1002500010BD000010B5064A136810210B4313604F
:100260000020FFF7E4FF01F0D9F9002010BDC046DF
:1002700000200240024A1368013313607047C046F1
:1002800024000020014B18687047C046240000205D
:1002900070B5002811DB8408134DC034A4006259E6
:1002A00003231840C000FC331E008640B24389017E
:1002B0000B4083401343635170BDC0B20F22024014
:1002C000083A920806329200084BD3185D6803245E
:1002D0002040C000FF2214008440A54389010A4049
:1002E00082402A435A60E7E700E100E000ED00E0C9
:1002F0001F2318401E3B8340014A13607047C046CD
:1003000000E100E001380A4B98420FD8094A5060DA
:100310000948036A1B021B0AC02109060B4303623A
:100320000023936007331360002070470120FCE72F
:10033000FFFFFF0010E000E000ED00E010B521231A
:10034000C35C022B03D004238363012010BD026829
:1003500013680E218B43136001680A6801239A43D6
:100360000A60C26B1900046CA140516021228354C1
:100370001F330022C254436B002B02D09847002049
:10038000E4E70020E2E70000F0B5C64600B582B021
:10039000002338E0032600E00026AE4035003D4350
:1003A0000234A400554EA551554C25684246D4430D
:1003B0002E0026404A68D20302D5424615432E003D
:1003C0004F4D2E606D682E0026404A68920302D57C
:1003D000424615432E004A4D6E60AD682E00264001
:1003E0004A68D20202D5424615432E00444DAE6003
:1003F000ED682C404A68920202D542462A43140016
:100400003F4AD46001330A681400DC4071D00125F2
:100410009D402A409046F5D04C68022C01D0122C09
:100420000ED1DC080834A400275807261E40B60069
:100430000F22B24097430A69B24016003E4326504D
:1004400002685F0003242600BE40F6433240944613
:100450004A681440BC406246144304604C68621E03
:10046000012A03D9112C01D0122C10D184683440F8
:10047000A446CC68BC406246144384604468AC43E4
:100480004A681209012515409D4025434560C4680E
:1004900026408C68BC403443C4604A68D200B1D561
:1004A000184DAE6901242643AE61AD692C4001941C
:1004B000019C9C08A51CAD00104EAF5903251D40A2
:1004C000AD000F26AE40B7439026F605B04200D1EE
:1004D00062E70D4EB04208D00C4EB04207D00C4E31
:1004E000B04200D156E7052657E7012655E7022618
:1004F00053E702B004BC9046F0BDC0460000014086
:1005000000040140001002400004004800080048B8
:10051000000C0048002A01D1816270478161FCE72C
:1005200070B582B004000368DB0726D5AE4B5A686D
:100530000C231340042B18D0AB4B5A680C231340E8
:10054000082B0ED06368012B3CD0002B51D1A64B59
:100550001A68A6490A401A601A68A5490A401A6032
:1005600036E0A14B5B68DB03ECD59F4B1B689B031C
:1005700003D56368002B00D1ECE123689B0773D59A
:10058000994B5B680C221A425DD0974B5A680C233A
:100590001340082B53D0E368002B00D186E0924A29
:1005A000136801210B431360FFF76CFE05008E4BAF
:1005B0001B689B0771D4FFF765FE401B0228F6D924
:1005C0000320CAE1884A116880235B020B43136051
:1005D0006368002B25D0FFF755FE0500824B1B6892
:1005E0009B03CAD4FFF74EFE401B6428F6D90320B4
:1005F000B3E1052B09D07C4B1A687C490A401A608C
:100600001A687B490A401A60E2E7774B1968802232
:10061000D2020A431A601968802252020A431A6001
:10062000D6E7FFF72FFE05006F4B1B689B03A4D591
:10063000FFF728FE401B6428F6D903208DE16A4BA2
:100640005B68DB03A7D4684B1B689B0704D5E36892
:10065000012B01D0012080E163490B68F82293430C
:100660002269D20013430B6023681B0744D5E3695A
:10067000002B2ED05C4A536A01210B435362FFF7D3
:1006800001FE0500584B5B6A9B0735D4FFF7FAFD66
:10069000401B0228F6D903205FE153490B68F8227A
:1006A00093432269D20013430B60DDE74E4A13687F
:1006B00001218B431360FFF7E5FD05004A4B1B68E2
:1006C0009B07D1D5FFF7DEFD401B0228F6D903209A
:1006D00043E1454A536A01218B435362FFF7D2FD40
:1006E0000500414B5B6A9B0706D5FFF7CBFD401B1E
:1006F0000228F6D9032030E123685B0700D47FE0AD
:10070000394BDB69DB001DD4374AD16980204005B5
:100710000143D161D36903400193019B0125354B0E
:100720001B68DB0510D5A368012B21D0002B36D127
:100730002D4B1A6A01218A431A621A6A03318A43CD
:100740001A621AE00025EAE72A4A116880235B0052
:100750000B431360FFF796FD0600264B1B68DB0575
:10076000E1D4FFF78FFD801B6428F6D90320F4E065
:100770001D4A136A01210B431362A368002B24D086
:10078000FFF780FD0600184B1B6A9B0736D4FFF766
:1007900079FD801B184B9842F5D90320DDE0052B2D
:1007A00009D0114B1A6A01218A431A621A6A03316D
:1007B0008A431A62E1E70C4B1A6A04210A431A625F
:1007C0001A6A03390A431A62D7E7FFF75BFD06008E
:1007D000054B1B6A9B0711D5FFF754FD801B064B89
:1007E0009842F5D90320B8E000100240FFFFFEFF59
:1007F000FFFFFBFF0070004088130000012D33D085
:100800002368DB0610D56369012B33D0053351D142
:10081000544A536B04218B435363536BF4318B4322
:10082000A169C9000B435363236A002B00D193E0F5
:100830004C4A51680C220A40082A00D18FE0022B52
:100840004FD0484A136848490B401360FFF71AFD20
:100850000400444B1B689B017AD5FFF713FD001B76
:100860000228F6D9032078E03E4AD3693F490B407D
:10087000D361C5E73B4B5A6B04210A435A635A6B59
:1008800003390A435A63FFF7FDFC0500354B5B6BE8
:100890009B0706D4FFF7F6FC401B0228F6D903207D
:1008A0005BE030494B6BF8229343A269D2001343BB
:1008B0004B63B9E72B4B5A6B04210A435A635A6BBB
:1008C00003398A435A63FFF7DDFC0500254B5B6B58
:1008D0009B07A9D5FFF7D6FC401B0228F6D90320B9
:1008E0003BE0204A136820490B401360FFF7CAFC25
:1008F00005001C4B1B689B0106D5FFF7C3FC401B82
:100900000228F6D9032028E0164BDA6A0F218A4321
:10091000E16A0A43DA625A6815490A40A16A606AC4
:1009200001430A435A601968802252040A431A603C
:10093000FFF7A8FC04000B4B1B689B0106D4FFF7D4
:10094000A1FC001B0228F6D9032006E0002004E0E9
:10095000002002E0012000E0002002B070BD012074
:10096000FBE7C04600100240FFFFFFFEFFFFFFEF66
:10097000FFFFC2FF30B589B004AA174B180032C878
:1009800032C2110002680A606A46103313CB13C2E8
:100990001B681360114B5A680C231340082B19D1A4
:1009A000910C0733194004A8445C0C49C96A0B40F8
:1009B0006946C95CD30308D463011B1B9801C01AA4
:1009C000C0000419200209B030BD0548FFF79CFBA8
:1009D0006043F8E70248F6E70818000800100240F4
:1009E00000127A0070B505000C004D4B1A68012307
:1009F00013408B420BD24A490B6801229343234395
:100A00000B600B681A40A24201D0012070BD2B6818
:100A10009B0706D5434A5368F0218B43A9680B43D3
:100A200053602B68DB074BD56B68012B20D0022B62
:100A300024D03C4A126892076FD53A494A6803208D
:100A4000824313434B60FFF71DFC06006B68012BCC
:100A50001AD0022B26D0334B5B680C221A422FD0BF
:100A6000FFF710FC801B304B9842F4D90320CDE7F0
:100A70002C4A12689203E0D40120C7E7294A126881
:100A80009201DAD40120C1E7264B5A680C231340A7
:100A9000042B15D0FFF7F6FB801B234B9842F3D9AC
:100AA0000320B3E71F4B5A680C231340082B07D0D1
:100AB000FFF7E8FB801B1C4B9842F3D90320A5E706
:100AC000174B1A6801231340A3420BD914490B6832
:100AD0000122934323430B600B681A40A24201D0CA
:100AE000012093E72B685B0706D50E4A53680F4930
:100AF0000B40E9680B435360FFF73CFF094B5A6812
:100B000012090F2313400A4AD35CD840094B1860DE
:100B10000020FFF78CFB002078E7012076E7C04635
:100B2000002002400010024088130000FFF8FFFF81
:100B30002818000800000020014B18687047C046C4
:100B40000000002010B5FFF7F7FF044B5A68120AA7
:100B500007231340024AD35CD84010BD0010024066
:100B60003818000870B582B004000368DB0335D57F
:100B7000414BDB69DB0052D43F4AD16980204005FC
:100B80000143D161D36903400193019B01253B4B94
:100B90001B68DB0545D5384B1B6AC0229200134009
:100BA00013D061680A409A420FD0334B186A344A16
:100BB00002401E6A8021490231431962196A314E8E
:100BC000314019621A62C3073FD42B4A136A2C4979
:100BD0000B4061680B431362012D45D02368DB078E
:100BE00006D5254A136B03218B43A1680B4313637E
:100BF00023689B0606D5204A136B10218B43E168BE
:100C00000B43136323685B0533D51B4A136B4021E9
:100C10008B4321690B431363002002B070BD002594
:100C2000B5E7164A116880235B000B431360FFF79A
:100C300029FB0600114B1B68DB05ACD4FFF722FB38
:100C4000801B6428F6D90320E7E7FFF71BFB0600AB
:100C5000094B1B6A9B07B8D4FFF714FB801B0A4B98
:100C60009842F5D90320D8E7D36908490B40D361EE
:100C7000B4E70020D1E7C0460010024000700040F9
:100C8000FFFCFFFFFFFFFEFF88130000FFFFFFEFE9
:100C90000268136806490B401360026893682331A9
:100CA000FF318B4393606A232022C2547047C046B1
:100CB000DFFEFFFF30B56A23C35C202B4AD1002939
:100CC0004AD0002A4AD0836880246401A34218D005
:100CD0006824045D012C43D0682401250555416535
:100CE00058214252023142528022520193420FD087
:100CF000002B13D10369002B28D15C33FF22C25291
:100D00000CE00469002CE3D1CC07E1D5012022E0FE
:100D10000369002B16D15C33124AC2520023C3660A
:100D20006A2222218154023A83540268936821394D
:100D30000B4393600268116890235B000B431360C0
:100D4000002008E05C23FF22C252E7E75C237F22F9
:100D5000C252E3E7022030BD0120FCE70120FAE7A0
:100D60000220F8E7FF0100007047704710B5406AA5
:100D700000235A228352083A8352FFF7F6FF10BD30
:100D800070B5040083680269134342691343C26962
:100D9000134301680A686048024013430B602268ED
:100DA00053685E490B40E1680B435360A269236AB4
:100DB0001A4321688B685A48034013438B602568A7
:100DC000584B9D4220D0584B9D4231D01023802259
:100DD0001202E16991422FD0022B00D180E000D8AD
:100DE0006EE0042B00D187E0082B00D092E0616810
:100DF000480880231B029C466044FFF785F90004E5
:100E0000000CE860002040E0484B1A6B03231340BD
:100E1000012B09D0002B05D0022B07D0032B09D0C2
:100E20001023D4E70023D2E70423D0E70823CEE73A
:100E30000023CCE70223CAE7022B27D00FD9042BCB
:100E40002FD0082B39D16368580880235B029C4659
:100E500060446168FFF758F983B200200CE0002B72
:100E60002BD1FFF76FFE400063685B08C018616814
:100E7000FFF74AF983B200200F22190091435B105B
:100E8000083A13400B432268D36070BD636858086A
:100E9000274B9C4660446168FFF736F983B2002017
:100EA000EAE7FFF767FD400063685B08C018616808
:100EB000FFF72AF983B20020DEE701200023DBE7F9
:100EC000002B27D1FFF73EFE63685B08C0186168FE
:100ED000FFF71AF923680004000CD8600020D4E75B
:100EE00061684808134B9C466044FFF70DF9000405
:100EF000000CE8600020C8E7FFF73CFD63685B0872
:100F0000C0186168FFF700F923680004000CD8607E
:100F10000020BAE70120B8E7F369FFFFFFCFFFFF2A
:100F2000FFF4FFFF00380140004400400010024081
:100F30000024F40000127A00436ADB0706D5026839
:100F400053682C490B40816A0B435360436A9B07EB
:100F500006D50268536828490B40C16A0B435360A9
:100F6000436A5B0706D50268536824490B40016B4E
:100F70000B435360436A1B0706D502685368204938
:100F80000B40416B0B435360436ADB0606D5026896
:100F900093681C490B40816B0B439360436A9B062B
:100FA00006D50268936818490B40C16B0B439360E8
:100FB000436A5B060BD50268536814490B40016C09
:100FC0000B43536080235B03026C9A420AD0436A4E
:100FD0001B0606D5026853680D490B40816C0B4314
:100FE00053607047026853680A490B40416C0B43D9
:100FF0005360ECE7FFFFFDFFFFFFFEFFFFFFFBFF7E
:10100000FF7FFFFFFFEFFFFFFFDFFFFFFFFFEFFFB0
:10101000FFFFF7FFFFFF9FFFF0B5C64600B50600D4
:101020000C0017009846069D3368DB6923401B1BA4
:101030005A425341BB421ED16B1CF5D0002D05D046
:10104000FFF720F94346C01AA842EDD93268136869
:101050000B490B40136032689368A331FF318B4317
:10106000936020236922B3540132B35448330022E1
:10107000F254032000E0002004BC9046F0BDC046BE
:101080005FFEFFFFF0B585B004000E0017001D00E5
:101090006923C35C202B59D100295AD0002A5AD089
:1010A00080235B0182689A4213D06823E35C012BA2
:1010B00053D068230122E2540023E36669332032CF
:1010C000E254FFF7DFF803905023E7520233E75270
:1010D0000AE00369002BE8D1CB07E6D5012036E012
:1010E00033782268138501365223E35A9BB2002BD2
:1010F0001CD05222A35A013B9BB2A3520095039BE2
:10110000002280212000FFF787FF002827D18023BD
:101110005B01A2689A42E3D12369002BE0D13388B6
:10112000DB05DB0D226813850236DDE70095039BA6
:10113000002240212000FFF76FFF002811D1692312
:101140002022E254013B0022E25400E0022005B0DC
:10115000F0BD0120FBE70120F9E70220F7E70320BB
:10116000F5E70320F3E7000030B583B00400002367
:10117000C366FFF787F805002368174A93420AD031
:1011800020236922A3540132A35448330022E2549D
:10119000002003B030BD1B681B0710D423681B68F8
:1011A0005B07EDD580210D4B00932B000022C90376
:1011B0002000FFF731FF0028E2D00320E9E780217B
:1011C000064B00930300002289032000FFF724FF51
:1011D0000028E3D00320DCE700380140FFFFFF01D7
:1011E00010B5041E30D06923C35C002B22D06923C4
:1011F0002422E2542268136801218B4313602000EB
:10120000FFF7BEFD012814D0636A002B18D12268B5
:1012100053680E490B405360226893682A218B4320
:1012200093602268136829390B4313602000FFF78D
:101230009BFF10BD68330022C25400F007FAD6E7C6
:101240002000FFF779FEE2E70120F2E7FFB7FFFF9A
:101250006923C35C212B2FD13133C35A9BB2002B9E
:1012600011D080235B0182689A4218D0C36C5A1C4B
:10127000C2641B78026813855222835A013B9BB2D9
:101280008352002019E00268136880218B431360A9
:101290000268136840390B43136000200DE00369B6
:1012A000002BE3D1C36C1B88DB05DB0D02681385C3
:1012B000C36C0233C364DFE70220704710B50268D5
:1012C000136840218B43136069232022C254FFF727
:1012D0004BFD002010BD000010B55C23C25A0E3338
:1012E000C35C222B32D103689B8C9BB280214901C5
:1012F00084688C420ED0D2B2416D4C1C44651340C0
:101300000B705A22835A013B9BB28352002B0BD0A5
:10131000002021E001690029EDD11340426D1380C6
:10132000436D02334365ECE7026813680B490B40D9
:101330001360026893682331FF318B4393606A2303
:101340002022C25400F006F9002005E002689369EB
:1013500008210B439361022010BDC046DFFEFFFF52
:1013600070B504000168CB6908680F221A4003D1E8
:101370009D0601D585065BD48D68002A6ED00122BA
:101380002A4003D190267600304267D0DD0706D58B
:10139000C50504D501250D62E16E2943E166990773
:1013A00008D5002A06D0216802250D62E16E0235BB
:1013B0002943E166590708D5002A06D0216804258B
:1013C0000D62E16E023D2943E166190709D58106E8
:1013D00001D4002A05D0226808211162E26E0A4376
:1013E000E266E26E002A45D09B0601D5830623D42F
:1013F000E36E1B0703D423689B685B0628D5200097
:10140000FFF746FC23689A6852061DD59A6840216A
:101410008A439A60636E002B12D0214A5A63606E31
:10142000FEF78CFF002825D0606E436B984721E0C3
:101430002000FFF751FF1DE02000FFF74DFFD7E729
:101440002000FFF792FC15E02000FFF78EFC11E072
:101450002000FFF78AFC0023E3660BE0DA0201D5E7
:101460006A0208D41A0601D5020610D45B0601D51B
:10147000430610D470BD80235B030B6220236922D6
:10148000A3540132A354200000F00CF8F2E720002E
:10149000FFF7DEFEEEE72000FFF710FFEAE7C046A9
:1014A0006D0D000870470000F0B589B014220021CE
:1014B00003A800F095F9184B596980208002014378
:1014C00059615A6902400192019A5A6980210903BF
:1014D0000A435A615B690B400293029BC027BF001D
:1014E0000E4D002239002800FFF714F8012603965C
:1014F0000B4B049300240594902003A9C005FEF72C
:1015000043FF039704960594069403A92800FEF769
:101510003BFF09B0F0BDC046001002400008004883
:101520000000121010B50948094B036096239B0177
:10153000436000238360C36003610C2242618361C6
:10154000C36103624362FFF74BFE10BD2800002019
:101550000038014010B5012202490348FFF7AAFBF9
:1015600010BDC046200000202800002070B50500F6
:101570000C000800FEF754FEFA2382B29B00210003
:101580002800FFF77FFD70BD30B597B02C220021F9
:101590000BA800F025F91022002106A800F020F980
:1015A0001422002101A800F01BF902240A9401254D
:1015B0000D9510230E931294A0239B0314930AA855
:1015C000FEF7AEFF072306930794002408940994BE
:1015D000012106A8FFF706FA0195039401A8FFF779
:1015E000C1FA17B030BD000010B5FEF733FEFFF7AB
:1015F000CBFFFFF759FFFFF795FF054C0122054987
:101600002000FFF757FB04492000FFF7AFFFFEE77C
:1016100028000020200000204018000882B00A4B5B
:10162000996901221143996199690A400092009ACF
:10163000DA69802149050A43DA61DB690B400193CD
:10164000019B02B07047C0460010024010B588B040
:1016500004001422002103A800F0C2F82268174BEE
:101660009A4201D008B010BD154B99698020C00185
:10167000014399619A6902400192019A5A69802155
:1016800089020A435A615B690B400293029BC023A3
:10169000DB0003930223049301330693023B079379
:1016A000902003A9C005FEF76FFE002200211B2039
:1016B000FEF7EEFD1B20FEF71BFED3E700380140CE
:1016C000001002407047FEE77047704710B5FEF704
:1016D000D1FD10BD10B50248FFF742FE10BDC04657
:1016E00028000020114B1A6801210A431A605A6829
:1016F0000F4802405A601A680E4802401A601A6881
:101700000D4802401A605A680C4802405A60DA6A72
:101710000F208243DA621A6B094802401A635A6B3F
:101720008A435A6300229A607047C0460010024004
:101730000CB8FFF8FFFFF6FEFFFFFBFFFFFFC0FF47
:10174000ACFEFFFF0D4885460D480E490E4A0023AA
:1017500002E0D458C4500433C4188C42F9D30B4A65
:101760000B4C002301E013600432A242FBD3FFF7CD
:10177000B9FF00F011F8FFF737FFFEE70020002067
:101780000000002004000020581800080400002079
:1017900098000020FEE7000070B500260C4D0D4CAF
:1017A000641BA410A64209D1002600F021F80A4DBE
:1017B0000A4C641BA410A64205D170BDB300EB58BF
:1017C00098470136EEE7B300EB5898470136F2E749
:1017D0005018000850180008501800085418000845
:1017E00003001218934200D1704719700133F9E7D2
:1017F000F8B5C046F8BC08BC9E467047F8B5C04670
:08180000F8BC08BC9E467047CD
:1018080002030405060708090A0B0C0D0E0F101039
:101818000102030405060708090A0B0C0D0E0F1038
:101828000000000000000000010203040607080988
:10183800000000000102030448656C6C6F20576FBC
:08184800726C64210000000035
:04185000E9000008A3
:04185400C1000008C7
:0418580000127A0000
:040000050800174593
:00000001FF
